:020000040800F2
:1000000000000320055800088D1B00088F1B000806
:10001000911B0008931B0008951B000800000000BE
:100020000000000000000000000000006152000815
:10003000971B0008000000000153000865530008EA
:1000400055580008555800085558000855580008DC
:1000500055580008555800085558000855580008CC
:1000600055580008555800085558000855580008BC
:1000700055580008555800085558000855580008AC
:10008000555800085558000855580008555800089C
:10009000555800085558000855580008555800088C
:1000A000555800085558000855580008555800087C
:1000B000555800085558000855580008555800086C
:1000C000555800085558000855580008555800085C
:1000D000555800085558000855580008555800084C
:1000E000555800085558000855580008555800083C
:1000F000555800085558000855580008555800082C
:10010000555800085558000855580008555800081B
:100110005558000855580008991B00085558000804
:1001200055580008555800085558000855580008FB
:1001300055580008555800085558000855580008EB
:1001400055580008555800085558000855580008DB
:1001500055580008555800085558000855580008CB
:1001600055580008555800085558000855580008BB
:1001700055580008A91B0008555800080000000049
:10018000555800085558000855580008555800089B
:10019000555800085558000855580008555800088B
:0C01A000B91B000855580008C91B0008D6
:1001B00010B5054C237833B9044B13B10448AFF3A1
:1001C00000800123237010BD300D002000000000CE
:1001D00060CD000808B5034B1BB103490348AFF3DA
:1001E000008008BD00000000340D002060CD000834
:1001F00081F0004102E000BF83F0004330B54FEAD8
:1002000041044FEA430594EA050F08BF90EA020F44
:100210001FBF54EA000C55EA020C7FEA645C7FEAD7
:10022000655C00F0E2804FEA5454D4EB5555B8BFFA
:100230006D420CDD2C4480EA020281EA030382EA6B
:10024000000083EA010180EA020281EA0303362DFD
:1002500088BF30BD11F0004F4FEA01314FF4801CD0
:100260004CEA113102D0404261EB410113F0004FE2
:100270004FEA03334CEA133302D0524263EB430399
:1002800094EA050F00F0A780A4F10104D5F1200E37
:100290000DDB02FA0EFC22FA05F2801841F1000192
:1002A00003FA0EF2801843FA05F359410EE0A5F166
:1002B00020050EF1200E012A03FA0EFC28BF4CF097
:1002C000020C43FA05F3C01851EBE37101F000454D
:1002D00007D54FF0000EDCF1000C7EEB00006EEB5A
:1002E0000101B1F5801F1BD3B1F5001F0CD34908E4
:1002F0005FEA30004FEA3C0C04F101044FEA44523B
:1003000012F5800F80F09A80BCF1004F08BF5FEAC1
:10031000500C50F1000041EB045141EA050130BDA1
:100320005FEA4C0C404141EB010111F4801FA4F144
:100330000104E9D191F0000F04BF01460020B1FA99
:1003400081F308BF2033A3F10B03B3F120020CDAD1
:100350000C3208DD02F1140CC2F10C0201FA0CF0AF
:1003600021FA02F10CE002F11402D8BFC2F1200C14
:1003700001FA02F120FA0CFCDCBF41EA0C019040CA
:10038000E41AA2BF01EB0451294330BD6FEA040413
:100390001F3C1CDA0C340EDC04F11404C4F12002FE
:1003A00020FA04F001FA02F340EA030021FA04F310
:1003B00045EA030130BDC4F10C04C4F1200220FA67
:1003C00002F001FA04F340EA0300294630BD21FAA5
:1003D00004F0294630BD94F0000F83F4801306BF6B
:1003E00081F480110134013D4EE77FEA645C18BF5F
:1003F0007FEA655C29D094EA050F08BF90EA020FF6
:1004000005D054EA000C04BF1946104630BD91EAED
:10041000030F1EBF0021002030BD5FEA545C05D1F0
:100420004000494128BF41F0004130BD14F580042F
:100430003CBF01F5801130BD01F0004545F0FE41A3
:1004400041F470014FF0000030BD7FEA645C1ABFD8
:10045000194610467FEA655C1CBF0B46024650EA0F
:10046000013406BF52EA033591EA030F41F400213B
:1004700030BD00BF90F0000F04BF0021704730B5C1
:100480004FF4806404F132044FF000054FF0000196
:1004900050E700BF90F0000F04BF0021704730B557
:1004A0004FF4806404F1320410F0004548BF40422C
:1004B0004FF000013EE700BF42004FEAE2014FEA81
:1004C00031014FEA02701FBF12F07F4393F07F4F5C
:1004D00081F06051704732F07F4208BF704793F05F
:1004E0007F4F04BF41F40021704730B54FF4607472
:1004F00001F0004521F000411CE700BF50EA010275
:1005000008BF704730B54FF000050AE050EA01021D
:1005100008BF704730B511F0004502D5404261EB8D
:1005200041014FF4806404F132045FEA915C3FF4CE
:10053000D8AE4FF003025FEADC0C18BF03325FEA6B
:10054000DC0C18BF033202EBDC02C2F1200300FA1C
:1005500003FC20FA02F001FA03FE40EA0E0021FA41
:1005600002F11444BDE600BF70B54FF0FF0C4CF42F
:10057000E06C1CEA11541DBF1CEA135594EA0C0FE1
:1005800095EA0C0F00F0DEF82C4481EA030621EA1C
:100590004C5123EA4C5350EA013518BF52EA033557
:1005A00041F4801143F4801338D0A0FB02CE4FF009
:1005B0000005E1FB02E506F00042E0FB03E54FF039
:1005C0000006E1FB03569CF0000F18BF4EF0010E31
:1005D000A4F1FF04B6F5007F64F5407404D25FEA2D
:1005E0004E0E6D4146EB060642EAC62141EA5551E0
:1005F0004FEAC52040EA5E504FEACE2EB4F1FD0C22
:1006000088BFBCF5E06F1ED8BEF1004F08BF5FEA9F
:10061000500E50F1000041EB045170BD06F0004651
:1006200046EA010140EA020081EA0301B4EB5C04FE
:10063000C2BFD4EB0C0541EA045170BD41F48011F6
:100640004FF0000E013C00F3AB8014F1360FDEBF1B
:10065000002001F0004170BDC4F10004203C35DAF7
:100660000C341BDC04F11404C4F1200500FA05F37A
:1006700020FA04F001FA05F240EA020001F000421B
:1006800021F0004110EBD37021FA04F642EB060191
:100690005EEA430E08BF20EAD37070BDC4F10C04BB
:1006A000C4F1200500FA04F320FA05F001FA04F27F
:1006B00040EA020001F0004110EBD37041F100016B
:1006C0005EEA430E08BF20EAD37070BDC4F1200576
:1006D00000FA05F24EEA020E20FA04F301FA05F2DE
:1006E00043EA020321FA04F001F0004121FA04F286
:1006F00020EA020000EBD3705EEA430E08BF20EA56
:10070000D37070BD94F0000F0FD101F0004640008F
:1007100041EB010111F4801F08BF013CF7D041EA11
:10072000060195F0000F18BF704703F00046520015
:1007300043EB030313F4801F08BF013DF7D043EAE6
:100740000603704794EA0C0F0CEA135518BF95EA9C
:100750000C0F0CD050EA410618BF52EA4306D1D123
:1007600081EA030101F000414FF0000070BD50EA42
:10077000410606BF1046194652EA430619D094EACC
:100780000C0F02D150EA013613D195EA0C0F05D1B6
:1007900052EA03361CBF104619460AD181EA03010A
:1007A00001F0004141F0FE4141F470014FF00000C2
:1007B00070BD41F0FE4141F4780170BD70B54FF05D
:1007C000FF0C4CF4E06C1CEA11541DBF1CEA1355DD
:1007D00094EA0C0F95EA0C0F00F0A7F8A4EB0504BF
:1007E00081EA030E52EA03354FEA013100F08880B6
:1007F0004FEA03334FF0805545EA131343EA12637F
:100800004FEA022245EA111545EA10654FEA002633
:100810000EF000419D4208BF964244F1FD0404F5EC
:10082000407402D25B084FEA3202B61A65EB030548
:100830005B084FEA32024FF480104FF4002CB6EB05
:10084000020E75EB030E22BFB61A754640EA0C0085
:100850005B084FEA3202B6EB020E75EB030E22BFC5
:10086000B61A754640EA5C005B084FEA3202B6EB06
:10087000020E75EB030E22BFB61A754640EA9C00C5
:100880005B084FEA3202B6EB020E75EB030E22BF95
:10089000B61A754640EADC0055EA060E18D04FEA53
:1008A000051545EA16754FEA06164FEAC30343EAF3
:1008B00052734FEAC2025FEA1C1CC0D111F4801FC0
:1008C0000BD141EA00014FF000004FF0004CB6E7B9
:1008D00011F4801F04BF01430020B4F1FD0C88BF58
:1008E000BCF5E06F3FF6AFAEB5EB030C04BFB6EB63
:1008F000020C5FEA500C50F1000041EB045170BD56
:100900000EF0004E4EEA113114EB5C04C2BFD4EB82
:100910000C0541EA045170BD41F480114FF0000E06
:10092000013C90E645EA060E8DE60CEA135594EA82
:100930000C0F08BF95EA0C0F3FF43BAF94EA0C0F85
:100940000AD150EA01347FF434AF95EA0C0F7FF4FA
:1009500025AF104619462CE795EA0C0F06D152EA4E
:1009600003353FF4FDAE1046194622E750EA410632
:1009700018BF52EA43067FF4C5AE50EA41047FF443
:100980000DAF52EA43057FF4EBAE12E74FEA4102A6
:10099000B2F1E04324BFB3F5001CDCF1FE5C0DD9DD
:1009A00001F0004C4FEAC0024CEA5070B2F1004F27
:1009B00040EB830008BF20F00100704711F0804F2A
:1009C00021D113F13872BCBF01F00040704741F4EF
:1009D00080114FEA5252C2F11802C2F1200C10FAF3
:1009E0000CF320FA02F018BF40F001004FEAC123D7
:1009F0004FEAD32303FA0CFC40EA0C0023FA02F37B
:100A00004FEA4303CCE77FEA625307D150EA013350
:100A10001EBF4FF0FE4040F44000704701F0004020
:100A200040F0FE4040F40000704700BF53B94AB99F
:100A3000002908BF00281CBF4FF0FF314FF0FF30E6
:100A400000F072B9ADF1080C6DE904CE00F006F8C3
:100A5000DDF804E0DDE9022304B070472DE9F0473A
:100A6000089E04468846002B4BD18A42154667D91A
:100A7000B2FA82F24AB1C2F1200701FA02F320FA77
:100A800007F7954047EA030894404FEA154E230CB8
:100A9000B8FBFEF71FFA85FC0EFB178843EA0843F4
:100AA00007FB0CF1994209D9EB1807F1FF3080F0F0
:100AB0001B81994240F21881023F2B445B1AA4B279
:100AC000B3FBFEF00EFB103344EA034400FB0CFCC6
:100AD000A44509D92C1900F1FF3380F00781A44502
:100AE00040F2048102382C4440EA0740A4EB0C0495
:100AF00000271EB1D4400023C6E900433946BDE8B3
:100B0000F0878B4209D9002E00F0EB800027C6E960
:100B1000000138463946BDE8F087B3FA83F7002F65
:100B200047D18B4202D3824200F2FA80841A61EBF1
:100B3000030301209846002EE0D0C6E90048DDE717
:100B400002B9FFDEB2FA82F2002A40F08F80491B20
:100B50004FEA154E1FFA85F80127B1FBFEFC230C66
:100B60000EFB1C1143EA014308FB0CF1994207D923
:100B7000EB180CF1FF3002D2994200F2CD8084468E
:100B8000591AA3B2B1FBFEF00EFB101443EA044461
:100B900008FB00F8A04507D92C1900F1FF3302D259
:100BA000A04500F2B6801846A4EB080440EA0C40C9
:100BB0009FE7C7F1200CBB4022FA0CFE4EEA030E61
:100BC00001FA07F420FA0CF521FA0CF34FEA1E485B
:100BD0002543B3FBF8F92C0C08FB19331FFA8EFAE6
:100BE00044EA034309FB0AF49C4202FA07F200FAC2
:100BF00007F10BD91EEB030309F1FF3080F087806A
:100C00009C4240F28480A9F1020973441B1BADB2DF
:100C1000B3FBF8F008FB103345EA034400FB0AFA83
:100C2000A24508D91EEB040400F1FF336BD2A245A4
:100C300069D90238744440EA0940A0FB0289A4EB58
:100C40000A044C45C2464B4654D351D0002E69D0BD
:100C5000B1EB0A0564EB030404FA0CFCFD40FC4014
:100C60004CEA0505C6E90054002747E7C2F1200316
:100C700020FA03F7954001FA02F021FA03F34FEA54
:100C8000154E3843010CB3FBFEF71FFA85F80EFB37
:100C9000173341EA034107FB08F38B4204FA02F4DD
:100CA00007D9691807F1FF3C2FD28B422DD9023F9B
:100CB0002944CB1A81B2B3FBFEF00EFB103341EA9C
:100CC000034100FB08F38B4207D9691800F1FF3C90
:100CD00017D28B4215D902382944C91A40EA07476E
:100CE0003BE73746304609E70746E7E61846FBE6A6
:100CF0004145ABD2B8EB020A69EB0E02013813464C
:100D0000A4E76046E9E7184695E76746D1E78146DC
:100D10007CE702382C4447E7ACF1020C2B442FE768
:100D2000384608E73746E9E6704700BF034613F840
:100D3000012B002AFBD1181A01387047000000006F
:100D400001F0FF01102A2BDB10F0070F08D010F87C
:100D5000013B013A8B422DD010F0070F42B3F6D180
:100D6000F0B441EA012141EA014122F007047FF099
:100D700000070023F0E80256083C85EA010586EAF0
:100D8000010685FA47F5A3FA87F586FA47F6A5FA2C
:100D900087F68EB9EED1F0BC01F0FF0102F0070238
:100DA00032B110F8013B013A83EA010313B1F8D1E3
:100DB0000020704701387047002D06BF35460338C4
:100DC000073815F0010F07D1013015F4807F02BFFD
:100DD000013015F4C03F0130F0BC0138704700BF4E
:100DE0004FF0FF3C06E000BF4FF0010C02E000BFF7
:100DF0004FF0010C4DF804CD4FEA410C7FEA6C5CDA
:100E00004FEA430C18BF7FEA6C5C1BD001B050EA7C
:100E1000410C0CBF52EA430C91EA030F02BF90EA67
:100E2000020F0020704710F1000F91EA030F58BF26
:100E3000994208BF90422CBFD8176FEAE37040F088
:100E4000010070474FEA410C7FEA6C5C02D150EA26
:100E5000013C07D14FEA430C7FEA6C5CD6D152EAE1
:100E6000033CD3D05DF8040B704700BF84461046A6
:100E700062468C461946634600E000BF01B5FFF7A5
:100E8000B7FF002848BF10F1000F01BD4DF808ED75
:100E9000FFF7F4FF0CBF012000205DF808FB00BF46
:100EA0004DF808EDFFF7EAFF34BF012000205DF8A0
:100EB00008FB00BF4DF808EDFFF7E0FF94BF0120ED
:100EC00000205DF808FB00BF4DF808EDFFF7CEFFEE
:100ED00094BF012000205DF808FB00BF4DF808ED2D
:100EE000FFF7C4FF34BF012000205DF808FB00BFFE
:100EF0004FEA410C7FEA6C5C02D150EA013C0AD116
:100F00004FEA430C7FEA6C5C02D152EA033C02D107
:100F10004FF0000070474FF0010070474FEA410268
:100F200012F5001215D211D56FF47873B3EB62523B
:100F300012D94FEAC12343F0004343EA505311F062
:100F4000004F23FA02F018BF404270474FF00000F4
:100F5000704750EA013005D111F0004008BF6FF032
:100F6000004070474FF00000704700BF704700001E
:100F70002DE9F0478EB0002409940A940B940C9448
:100F80000D9401945D4B1A6B42F004021A631A6BC4
:100F900002F004020192019A02941A6B42F02002BC
:100FA0001A631A6B02F020020292029A03941A6BDF
:100FB00042F080021A631A6B02F080020392039AD5
:100FC00004941A6B42F001021A631A6B02F00102D8
:100FD0000492049A05941A6B42F002021A631A6B87
:100FE00002F002020592059A06941A6B42F0400242
:100FF0001A631A6B02F040020692069A07941A6B63
:1010000042F010021A631A6B02F010020792079A5C
:1010100008941A6B42F008021A631B6B03F0080372
:101020000893089B364F22461621384601F0D8F81F
:10103000DFF8D88022468021404601F0D1F8314EB9
:1010400022464FF44051304601F0CAF8DFF8C09014
:1010500022464FF4C041484601F0C2F816230993D6
:1010600001250A950B940C9409A9384600F0C2FF9B
:1010700048F2070309934FF4901ACDF828A00B9477
:1010800009A9404600F0B6FF802309930A950B9406
:101090000C9409A9404600F0ADFF20230993CDF838
:1010A00028A00B9409A9384600F0A4FF0423099353
:1010B0000A940B9409A9144800F09CFF4FF40063B4
:1010C00009930A940B9409A9304600F093FF4FF45A
:1010D000405309930A950B940C9409A9304600F0EB
:1010E00089FF4FF4C04309930A950B940C9409A906
:1010F000484600F07FFF0EB0BDE8F08700380240A0
:1011000000080240000C02400004024000000240BF
:101110000018024000B583B001904FF0FF33012268
:1011200001A9044803F092F80028F6D1019803B011
:101130005DF804FB783A002000B583B000238DF8F9
:10114000073000930D4803681A6800925B680093AB
:10115000009B4FF6FF7301220DF1070103F0E3F846
:101160000A2301220DF10701044803F06FF800285B
:10117000F6D19DF8070003B05DF804FB783A002033
:1011800008B50268034B9A4200D008BD00F08EFDFE
:10119000FBE700BF0010004072B6FEE708B5044848
:1011A000044B036000F0E8FD00B908BDFFF7F4FF51
:1011B000C83900200030024008B50C480C4B0360D1
:1011C000002343608360C3608362C362036343633D
:1011D00000F0E1FD28B90121044800F0A9FE10B992
:1011E00008BDFFF7D9FFFFF7D7FF00BF043B002082
:1011F00000B0024000B589B01548164B03600123CA
:101200004360002383600421C160102202614022F8
:1012100042614FF4C0728261C3614FF400620262A6
:1012200043624FF400538362022301930722029228
:10123000039104920322059206930793694402F0F6
:10124000EDFB10B909B05DF804FBFFF7A5FF00BF87
:10125000443B0020400100A008B51148114B036039
:10126000114B436000238360C3604FF480420261EE
:1012700043618361C361036201F032FC50B9002114
:10128000074801F007FD38B90021054801F024FDA9
:1012900020B908BDFFF780FFFFF77EFFFFF77CFF57
:1012A0001C390020005C0040A086010000B58FB012
:1012B0003422002101A809F022F92748274B0360B6
:1012C000002343608360C3600361092242610122FD
:1012D00082611D22C2610322026240F20D1242624B
:1012E00040F24312826240F21712C26240F2471289
:1012F000026380F8343080F8353080F8363001F001
:10130000D5FD20BB00220192F021029103924FF4FF
:10131000A073049302200590FF20069007924FF4DB
:10132000C0600890072009904FF050400A900B9140
:101330000C938DF834208DF835208DF8362001A9D6
:10134000054801F09DFE20B90FB05DF804FBFFF7E2
:1013500023FFFFF721FF00BFD039002000680140C4
:1013600008B50D480D4B03604FF4827343600023B2
:101370008360C360036143614FF40072826118228D
:10138000C2610362436283620A23C36202F065FBA7
:1013900000B908BDFFF700FF703900200050014080
:1013A00000B587B000230293039304930593009341
:1013B00001931448144A0260436083604FF6FF7241
:1013C000C26003614361836102F040FD98B906A9E0
:1013D0004FF4805341F8103D0A4802F06EFD60B9A9
:1013E0000023009301936946064802F0E1FD30B9FD
:1013F00007B05DF804FBFFF7CFFEFFF7CDFEFFF768
:10140000CBFE00BFBC3A00200000014008B50A48EE
:101410000A4B03604FF4E133436000238360C360F1
:1014200003610C2242618361C36102F0E0FE00B9F6
:1014300008BDFFF7B1FE00BF783A00200010014060
:1014400000B595B03022002108A809F058F8002313
:10145000039304930593069307930193204A116C19
:1014600041F080511164126C02F080520192019A95
:1014700002931C4B1A6842F440421A601B6803F442
:1014800040430293029B012308934FF48033099356
:1014900002230E934FF480020F9204221092A8228E
:1014A000119212930723139308A801F017FE98B91D
:1014B0000F23039302230493002305934FF4A053B7
:1014C00006934FF480530793052103A802F06EF8AA
:1014D00020B915B05DF804FBFFF75EFEFFF75CFE78
:1014E000003802400070004010B5ADF5815D3A4B08
:1014F0001868002302221946406809F099FD00F09F
:10150000BBFBFFF79DFFFFF733FDFFF747FEFFF73C
:1015100053FEFFF76FFEFFF79FFEFFF7C7FEFFF7D3
:101520001FFFFFF73DFFFFF771FF04F019F82B488D
:1015300009F066FD4FF48052294904A808F0D4FF51
:101540000023009302930DF58051103104A804F09C
:1015500003F8244809F054FD00230BE09DED007AC8
:10156000F4EEC77AF1EE10FA03DD8DF80430CDED1C
:10157000007A0133032B17DC9DED027A0DF58152C1
:1015800002EB830252ED047AB4EEE77AF1EE10FA40
:10159000E4D59DF80C208DF804208DED007ACDED7A
:1015A000027A8DF80C30E4E79DF80C400298FEF7C3
:1015B00083FF02460B4621460B4809F0ADFC9DF81F
:1015C00004400098FEF778FF02460B462146074884
:1015D00009F0A2FCFEE700BF600B00209451010857
:1015E00080CD0008B4510108D0510108EC51010828
:1015F0002DE9F04186B000230193029303930493F5
:1016000005932D4B1B6813B106B0BDE8F0814FF078
:101610000108294BC3F8008000260096274B9A6BDF
:1016200042EA08029A639B6B03EA08030093009B5B
:101630004FF63F03019302270297032504950C24DC
:10164000059401A91E4800F0D5FCCDF8048002974E
:1016500003960495059401A91A4800F0CBFC48F2C2
:1016600033130193029703960495059401A9164834
:1016700000F0C0FC4FF68373019302970396049524
:10168000059401A9114800F0B5FC4CF203730193D5
:10169000029703960495059401A90D4800F0AAFC51
:1016A00060230193029703960495059401A90948C4
:1016B00000F0A0FCA8E700BF4C0D0020003802405D
:1016C00000140240000802400018024000100240CE
:1016D000000C02400004024000B583B000220092DA
:1016E0000D4B596C41F480415964596C01F48041AF
:1016F000009100990192196C41F0805119641B6CA2
:1017000003F080530193019B0F216FF0010000F063
:10171000F1FA03B05DF804FB003802400268094B9F
:101720009A4200D0704782B000230193064B1A6B97
:1017300042F480521A631B6B03F480530193019BA4
:1017400002B07047003002400038024002680E4B81
:101750009A4200D0704700B583B000220192A3F5F1
:10176000F043196B41F4000119631B6B03F4000390
:101770000193019B05215A2000F0BCFA5A2000F089
:10178000EDFA03B05DF804FB00B002402DE9F04132
:1017900088B000230393049305930693079302688C
:1017A000204B9A4202D008B0BDE8F0810025009598
:1017B0001D4C236B43F004032363236B03F00403EA
:1017C0000093009B0195236B43F001032363236B7C
:1017D00003F001030193019B4FF4007303934FF057
:1017E0001208CDF81080012705970426079603A953
:1017F0000E4800F0FFFB4FF480730393CDF8108088
:1018000005970695079603A9094800F0F3FB029592
:10181000236C43F400032364236C03F4000302935A
:10182000029BC0E7005C0040003802400008024014
:10183000000002402DE9F04198B0044600211391C8
:101840001491159116911791302207A808F057FEB0
:101850002268624B9A4202D018B0BDE8F08108239A
:10186000079332230B9302230D9307A801F092FFF5
:10187000002840F0B08000240094594B5A6C42F08C
:1018800080625A645A6C02F080620092009A01945D
:101890001A6B42F020021A631A6B02F020020192C6
:1018A000019A02941A6B42F001021A631A6B02F059
:1018B00001020292029A03941A6B42F002021A6326
:1018C0001A6B02F002020392039A04941A6B42F01C
:1018D00040021A631A6B02F040020492049A0594C3
:1018E0001A6B42F004021A631A6B02F004020592AA
:1018F000059A06941A6B42F008021A631B6B03F0F8
:1019000008030693069B4FF48063139302251495F6
:10191000159416940E26179613A9324800F06AFB08
:1019200041F658031393149515941694179613A91A
:101930002D4800F05FFB0323139314951594169420
:101940004FF00908CDF85C80284F13A9384600F005
:1019500051FB4FF4706313931495159416941796D6
:1019600013A9384600F046FB4FF40C63139314950B
:1019700015941694179607F5A05713A9384600F04A
:1019800039FB4FF498631393149515941694179696
:1019900013A9174800F02EFB4823139314951594B0
:1019A0001694179613A9134800F024FB4FF4A05384
:1019B0001393149515941694CDF85C8013A93846AA
:1019C00000F018FB22460521582000F093F958201A
:1019D00000F0C4F940E7FFF7DFFB4CE70068014087
:1019E000003802400014024000000240000402409F
:1019F00000080240000C024000B589B000230393A8
:101A000004930593069307930268144B9A4202D0FD
:101A100009B05DF804FB0021019103F568435A6C9D
:101A200042F480125A645A6C02F480120192019AB4
:101A300002911A6B42F020021A631B6B03F0200321
:101A40000293029B4FF460730393022304930523D4
:101A5000079303A9024800F0CDFAD9E700500140EE
:101A6000001402400268094B9A4200D0704782B0CD
:101A700000230193064B5A6C42F001025A645B6CDE
:101A800003F001030193019B02B070470000014085
:101A90000038024000B589B00023039304930593F6
:101AA00006930793026803F1804303F588339A4253
:101AB00002D009B05DF804FB0021019103F59433D5
:101AC0005A6C42F010025A645A6C02F010020192F1
:101AD000019A02911A6B42F001021A631B6B03F028
:101AE00001030293029B4FF4C06303930223049308
:101AF000032306930723079303A9024800F07AFA09
:101B0000D7E700BF0000024008B5FFF771FD08BD30
:101B100010B588B000220146362000F0EBF83620E0
:101B200000F01CF900240194144B1A6C42F01002CE
:101B30001A641B6C03F010030193019B02A903A814
:101B400001F00AFE01F0E8FD43000D48A0FB03236D
:101B50009B0C013B0B480C4A026040F2E732C2602A
:101B600043600461846002F071F910B1012008B093
:101B700010BD044802F000F8F9E700BF0038024049
:101B800083DE1B43783B002000100040FEE7FEE7A9
:101B9000FEE7FEE7FEE7704708B5024802F034F8BA
:101BA00008BD00BF783B002008B5024800F0DBFE0E
:101BB00008BD00BFC43B002008B5024801F0F3F99E
:101BC00008BD00BFD039002008B5024800F012F966
:101BD00008BD00BF043B002070B50D46164600242A
:101BE00004E0FFF7A9FA287001340135B442F8DBAC
:101BF000304670BD70B51646002405E04D1C0878CF
:101C0000FFF788FA01342946B442F7DB304670BD4D
:101C100008B503460B4A126842B10A4A10680344E9
:101C20006A46934206D8074A136008BD054A06492A
:101C30001160F2E708F026FC0C2303604FF0FF3040
:101C4000F3E700BF540D0020D03E00204FF0FF30DE
:101C500070474FF400534B600020704701207047DD
:101C600000207047034AD2F8883043F47003C2F86A
:101C70008830704700ED00E008B50B4B1A6842F45D
:101C800000721A601A6842F480621A601A6842F49C
:101C900080721A60032000F01BF80020FFF738FF65
:101CA000FFF71AFD002008BD003C0240034A1168FE
:101CB000034B1B780B441360704700BFC03B0020F0
:101CC00004000020014B1868704700BFC03B002093
:101CD000074AD36823F4E0631B041B0C000200F4E2
:101CE000E060184340F0BF6040F40030D0607047BF
:101CF00000ED00E030B4174BDB68C3F30223C3F1FF
:101D00000704042C28BF04241D1D062D18D9033BED
:101D10004FF0FF3505FA04F421EA0401994005FA71
:101D200003F322EA0303194300280BDB0901C9B2BC
:101D300000F1604000F5614080F8001330BC70474E
:101D40000023E5E700F00F000901C9B2024B195466
:101D5000F4E700BF00ED00E014ED00E0002807DB31
:101D600000F01F02400901239340024A42F820304C
:101D7000704700BF00E100E058B110B50446437958
:101D80001BB101236371002010BD0371FFF7C6FC76
:101D9000F7E70120704748B310B5044690F8393092
:101DA000FBB1022384F839302268136823F44033EE
:101DB00061680B4313602268536B23F00703A1682B
:101DC0000B4353632268136C23F47F5323F03F03C8
:101DD000E1680B4313640020E063012384F8393089
:101DE00010BD80F83830FFF7B1FCDAE7012070470A
:101DF0007047704770B5044603685D681E6815F04B
:101E0000010F16D016F4807F13D01A6822F4807266
:101E10001A60C36B43F00103C363036801229A6035
:101E2000042380F83930002380F83830436903B147
:101E3000984715F0200F18D016F4005F15D02268CF
:101E4000136823F400531360236820229A60E36B25
:101E500043F00203E363042384F83930002384F859
:101E6000383063690BB12046984715F0080F18D039
:101E700016F4006F15D02268136823F40063136012
:101E8000236808229A60E36B43F00403E3630423AE
:101E900084F83930002384F8383063690BB1204668
:101EA000984715F0040F02D016F4806F20D115F07A
:101EB000020F16D016F4007F13D02268136823F4A3
:101EC00000731360236802229A60E36BE3630123CB
:101ED00084F83930002384F8383023690BB1204668
:101EE000984715F0100F02D016F4805F0CD170BD2A
:101EF0002268136823F480631360236804229A60C5
:101F00002046FFF775FFD2E72268136823F4805359
:101F10001360236810229A60E36BE363012384F863
:101F20003930002384F838302046FFF762FFDEE7BF
:101F300090F83830012B59D030B4012380F8383074
:101F4000022380F8393000EB0113DA698B1C1B0186
:101F5000C35842EA0343093A012A1ED98A1C00EBFE
:101F60000212526843EA026341BB0468656A204A70
:101F70002A4013436362026800EB01139C69946179
:101F8000DB69093B012B10D9012380F8393000238C
:101F900080F83830184630BC70478A1C00EB0212BB
:101FA000526802F07F421343DEE7023100EB011179
:101FB0004B68026823F07F439362E5E70468E569B4
:101FC0000B4A2A401343E361026800EB01139C694A
:101FD0001461DB69093B012BD6D8023100EB0111FA
:101FE0004B68026823F07F431362CDE702207047FD
:101FF000F0FFFC0000230F2B00F2E980F0B482B068
:102000005EE086685F000324BC4026EA0406CC68D4
:10201000BC4034438460466826EA02064C68C4F338
:1020200000129A403243426057E0DC08083450F80E
:10203000247003F0070296000F22B24027EA02073D
:102040000A69B2403A4340F824205AE0092200E0ED
:102050000022B2403A4302345D4E46F824205D4AE5
:102060001468EA4302EA04064F6817F4803F01D07F
:1020700045EA0406574C2660646802EA04064F6885
:1020800017F4003F01D045EA0406524C6660A4688C
:1020900002EA04064F6817F4801F01D045EA0406DF
:1020A0004C4CA660E46822404E6816F4001F01D034
:1020B00045EA0402474CE26001330F2B00F28480B2
:1020C00001229A400C6804EA0205AA42F4D14C6845
:1020D00004F00304013C012C93D94A6802F0030286
:1020E000032A09D0C4685E000322B24024EA020435
:1020F0008A68B2402243C2604A6802F00302022AA0
:1021000093D004685E000322B24024EA02044A68C5
:1021100002F00302B240224302604A6812F4403FD8
:10212000CAD0002201922C4A546C44F48044546476
:10213000526C02F480420192019A9C08A61C244A27
:1021400052F8267003F0030296000F22B24027EAED
:102150000207224A90423FF47BAF02F58062904230
:1021600022D002F58062904220D002F58062904237
:102170001ED002F5806290421CD002F5806290422F
:102180001AD002F58062904218D002F58062904227
:1021900016D002F58062904214D002F5806290421F
:1021A0003FF454AF0A2254E7012252E7022250E7DB
:1021B00003224EE704224CE705224AE7062248E7BD
:1021C000072246E7082244E702B0F0BC7047704798
:1021D00000380140003C014000380240000002404D
:1021E00012B909048161704781617047F8B50568CB
:1021F0002C6A04F00F06C4F34343C4F30A14022B01
:1022000013D194B12C2303FB0603596C69B12C2321
:1022100003FB06031A6D2244DB6C9A4206D92C2379
:1022200003FB0600042380F86030F8BD0746224611
:10223000284602F0ABF92C2303FB06735A6C2244A8
:102240005A641A6D22441A6505EB4615D5F8102517
:10225000C2F3C942B3F84030A342E6D1002AE4D029
:10226000D5F8003523F0804343F00043C5F800352E
:102270002C2000FB067090F8543083F0010380F8A6
:102280005430D2E730B583B005460468D4F8403402
:102290000193D4F840340093009B23F02E03009365
:1022A000019B13F0020F07D0019B13F0010F25D102
:1022B000009B43F002030093019B13F0080F10D022
:1022C000009B43F008030093019B13F0040F2DD0F3
:1022D000AB69022B15D0EB68012B22D0284603F006
:1022E0009BF8019B13F0200F03D0009B43F02003C9
:1022F0000093009BC4F8403403B030BD03F07AF87B
:10230000D6E7019B03F4C023B3F5802F04D001214D
:10231000286802F06AF9E1E70221286802F065F90D
:10232000DCE74EF66022C4F80424D7E7284603F021
:1023300079F8D6E7F8B505460E46076807EB41176A
:1023400007F5A064A36813F0040F40D00423A36032
:10235000E36843F00203E360A36813F4007F40F0F6
:102360009380A36813F0010F00F0D7802B6943B16D
:102370002C2303FB06539A6C2169C1F31201521AF4
:102380001A652C2303FB0653012283F861200021E8
:10239000D965A26093F83F30002B00F08180022BBA
:1023A0007ED0032B00F09380012B40F083802C2300
:1023B00003FB0653012283F8602093F85410514028
:1023C00083F854103146284603F020F872E0A368E1
:1023D00013F4807F06D1A36813F0200F13D02023BD
:1023E000A360B9E74FF48073A3602C2303FB0103C0
:1023F000072283F86120E36843F00203E36000688A
:1024000002F018F9A8E7A36813F0080F17D1A36822
:1024100013F4806F25D1A36813F0800F9CD0E3687C
:1024200043F00203E3602C2303FB0103062283F83D
:102430006120006802F0FEF88023A3608CE7E36867
:1024400043F00203E3602C2303FB0103052283F81E
:1024500061201023A3600823A360006802F0EAF85B
:102460007AE7E36843F00203E3602C2303FB0103F4
:10247000082283F861201023A3604FF48063A360D7
:10248000006802F0D7F867E7E36843F00203E3600F
:102490003146286802F0CEF84FF40073A360F8BD0F
:1024A000E36843F00203E3603146286802F0C2F8B3
:1024B0001023A3602B69012B1AD02C2303FB065594
:1024C00095F8543083F0010385F85430E7E7D7F8E6
:1024D000003543F00053C7F800352C2303FB0653A7
:1024E000012283F860203146284602F08FFFE1E7A1
:1024F0002C2303FB06539A6CB3F84030B2FBF3F382
:1025000013F0010FCBD02C2303FB065595F8543064
:1025100083F0010385F85430C1E7A36813F0020F7C
:1025200064D0E36823F00203E3602C2303FB06532B
:1025300093F86130012B13D0052B23D0062B28D024
:10254000082B26D0032B42D0072B0FD12C2303FBC3
:102550000653DA6D0132DA65042283F8602005E063
:102560002C2303FB0653012283F860200223A3607F
:102570002C2303FB065393F860203146284602F0D3
:1025800045FF8CE72C2303FB0653052283F86020CC
:10259000ECE72C2202FB0652D36D0133D365022BEC
:1025A00006D913460022DA65042283F86020DDE7AD
:1025B0002C2303FB0653022283F86020D7F8003552
:1025C00023F0804343F00043C7F80035CEE72C23C7
:1025D00003FB0653022283F86020D7F8003523F06E
:1025E000804343F00043C7F80035BFE7A36813F00A
:1025F000100F3FF454AF2C2303FB065393F83F30E6
:10260000032B0CD00BB1022B06D12C2303FB06535A
:102610000022DA652B6983B11023A3603FE72C23E6
:1026200003FB06530022DA65E36843F00203E3602C
:102630003146286801F0FEFFEEE72C2303FB06532A
:10264000032283F86120E36843F00203E36031462C
:10265000286801F0EFFFDFE770B5036803EB411373
:1026600003F5A064A26812F0040F1ED10E460546C1
:10267000A26812F0200F1FD02023A3602C2303FB9D
:10268000010393F83D30012B15D12C2303FB0103EB
:10269000002283F83D20022283F86020E368134380
:1026A000E360006801F0C6FF05E00423A360E3686F
:1026B00043F00203E36070BDA26812F4007F24D1EE
:1026C000A26812F0010F2BD02C2303FB0103002280
:1026D000DA65A36813F0400F07D02C2303FB010336
:1026E000012283F83D204023A360E36843F0020306
:1026F000E3603146286801F09DFF0123A3602C2090
:1027000000FB065080F86130D5E7E36843F0020330
:10271000E360006801F08EFF4FF40073A360CAE726
:10272000A26812F0400F29D1A26812F0080F3AD126
:10273000A26812F0100F46D02C2303FB01030022E5
:10274000DA65032283F8612093F83D305BB92C23CE
:1027500003FB010393F83C302BB92C2303FB01034B
:10276000012283F83D20E36843F00203E360314631
:10277000286801F05FFF1023A3609CE72C2303FB74
:102780000103042283F86120012283F83D20002206
:10279000DA65E36843F00203E360006801F04AFF92
:1027A0004023A36087E70823A360E36843F00203A4
:1027B000E360006801F03EFF2C2101FB0651052378
:1027C00081F8613077E7A26812F0800F29D00369A1
:1027D00083B12C2202FB0102D36D0133D365022B9E
:1027E00016D82C2101FB0601022381F860308023DA
:1027F000A36060E72C2303FB0103062283F861201A
:10280000E36843F00203E360006801F013FFEEE7C2
:1028100013460022DA65042283F8602002F0F6FDF8
:10282000E5E7A26812F4806F27D1A26812F0020FC8
:102830003FF441AFE26822F00202E2602C2202FB88
:10284000010292F86120012A2AD0032A68D0042AC2
:102850006DD0052A72D0062A01D0082A2BD12C214E
:1028600001FB0651CA6D0132CA65022A6CD90022E9
:10287000CA65042281F860201DE0E36843F002038A
:10288000E360006801F0D6FE1023A3604FF480637C
:10289000A3602C2101FB0651082381F861300AE76F
:1028A0002C2303FB010383F8602093F83F30023BA5
:1028B000DBB293420BD90223A3602C2303FB065304
:1028C00093F860203146284602F0A0FDF3E6016946
:1028D00041B92C2303FB060393F8552082F0010233
:1028E00083F855200129E6D12C2303FB0653DB6C2A
:1028F000002BE0D02C2202FB0652B2F840201344F9
:10290000013BB3FBF2F313F0010FD4D02C2303FBF4
:10291000065393F8552082F0010283F85520CAE748
:102920002C2303FB0103022283F86020C3E72C233E
:1029300003FB0103022283F86020BCE72C2303FB86
:10294000010383F86020B6E72C2202FB0652022125
:1029500082F86010D3F8002522F0804242F0004255
:10296000C3F80025A7E7F8B504460568284601F036
:1029700038FE012800D0F8BD2E46206801F02DFE5B
:102980000028F8D0206801F028FE10F4001F03D0C2
:1029900023684FF400125A61206801F01EFE10F403
:1029A000801F03D023684FF480125A61206801F021
:1029B00014FE10F0806F03D023684FF080625A61DC
:1029C000206801F00AFE10F0020F02D023680222F4
:1029D0005A61206801F001FE10F0005F08D0236802
:1029E0004FF000525A61D5F8403413F0010F1DD05A
:1029F000206801F0F2FD10F0807F26D1206801F000
:102A0000ECFD10F0080F24D1206801F0E6FD10F075
:102A1000100F25D1206801F0E0FD10F0007FAAD052
:102A2000206801F002FE074600252CE01021284610
:102A300001F07EFD284601F093FD0121206801F0A0
:102A4000D4FD204602F0DCFCD2E72046FFF71AFC5A
:102A5000D4E7204602F0C8FC236808225A61D3E775
:102A60002268936923F0100393612046FFF7BEFBB1
:102A70002268936943F010039361CBE7E9B22046E3
:102A8000FFF7EAFD0135A368AB4212D905F00F0349
:102A900027FA03F313F0010FF4D006EB4513D3F834
:102AA000003513F4004FE9D0E9B22046FFF742FCAD
:102AB000E8E723684FF000725A615CE790F8F8325B
:102AC000012B0BD010B50446012380F8F8320068C2
:102AD00001F024FE002084F8F80210BD02207047A7
:102AE000002800F0C880F8B5044690F83D30002B6F
:102AF00075D0242384F83D302268136823F0010345
:102B000013602268136843F400431360226813685B
:102B100023F40043136000F0FFFD6268584B9A42B3
:102B200062D8584B98428CBF00230123002B40F001
:102B3000A480554BA3FB00239B0C21684A6822F01C
:102B40003F021A434A6025682A6A22F03F026668FB
:102B50004B498E424ED8013313432B622568E969F5
:102B600021F44F4121F0FF016368454A93424BD85D
:102B700001385B00B0FBF3F30133C3F30B03042B09
:102B800038BF04230B43EB6121680B6823F0C003BB
:102B9000E269206A024313430B6021688B6823F4C7
:102BA000034323F0FF032269E068024313438B6071
:102BB0002168CB6823F0FF036269A06902431343D5
:102BC000CB602268136843F0010313600020206487
:102BD000202384F83D30206384F83E00F8BD80F85F
:102BE0003C30FEF7D3FD84E7284B98428CBF00238E
:102BF00001239BE74FF4967101FB03F32449A1FBEA
:102C000003139B090133A7E7A268BAB9461E03EB79
:102C10004307B6FBF7F60136C6F30B06B6FA86F69F
:102C2000760936BBC2B9013803EB4303B0FBF3F3BB
:102C30000133C3F30B0242F40043A3E7461E03EB48
:102C4000830707EB8707B6FBF7F60136C6F30B06DB
:102C5000B6FA86F67609E4E7013803EB830303EB63
:102C60008303B0FBF3F20132C2F30B0242F44043A0
:102C700088E7012386E7012070470120AEE700BF07
:102C8000A08601007F841E0083DE1B43FF083D00F9
:102C9000D34D621090F83D30DBB2202B1AD12423A3
:102CA00080F83D300268136823F001031360026866
:102CB000536A23F0100353620268536A1943516246
:102CC0000268136843F001031360202380F83D304D
:102CD000002070470220704790F83D30DBB2202B77
:102CE00019D1242380F83D300268136823F00103D2
:102CF00013600268536A9BB223F00F03194389B231
:102D000051620268136843F001031360202380F8C6
:102D10003D300020704702207047F0B44D680468D1
:102D2000E368C3F30B431D44D2011444D4F8883044
:102D300003F47043C4F888300B680468E668C6F38F
:102D40000B4633440133144443EA0543C4F8883046
:102D5000CD680468E368C3F30A031D441444D4F83F
:102D60008C3003F47043C4F88C308B680468E668D8
:102D7000C6F30A0633440133144443EA0543C4F856
:102D80008C3003681344D3F8944024F00704C3F84C
:102D90009440036813440C69C3F8944091F831C01F
:102DA00091F832708E6905681544D5F89C3000247E
:102DB000C5F89C4091F8303043EA0C2343EA0743BE
:102DC0000568154443EA0663C5F89C30036813445C
:102DD000D3F8985025F0FF05C3F8985003681344C2
:102DE0004D69C3F8985003681344D3F8A05025F4F4
:102DF000E06525F00705C3F8A050CD690E6A0368A9
:102E000013443543C3F8A05003681344D3F8AC50BF
:102E1000C3F8AC40036813444C6AC3F8AC400B6978
:102E20006BB1012B3CD0042B3CD0022B08D0032BE0
:102E30003AD0072B01D0012302E0022300E0042353
:102E400004681444D4F8B05005F0E025C4F8B0503C
:102E50008C6A03FB04F54C680E68A41B03FB04F3A7
:102E600003330468144443EA0543C4F8B0300368EC
:102E70001344D3F8B44024F4FF6424F00704C3F8E7
:102E8000B44003681344C96AC3F8B41003681A4411
:102E9000D2F8843043F00103C2F88430F0BC7047AC
:102EA0000323CDE70223CBE70223C9E7002872D032
:102EB00038B5044690F8A130002B67D0022384F87F
:102EC000A1302268936923F07043936121688A6975
:102ED0006368A0680343E068034320690343134326
:102EE0008B6121688A682D4B1A408A606569206869
:102EF0008268A16941EA05410A4382602168CA6883
:102F00001A40CA60E5692068C268216A41EA054141
:102F10000A43C26021680A691A400A61656A20682A
:102F20000269A16A41EA05410A43026121684A69CE
:102F300013404B61E06A21684B69226B42EA004210
:102F400013434B6194F8350094F836301B04216824
:102F5000CA6A02F07F42CA622168CA6A43EA002351
:102F600094F8340003431343CB622268536B43F05D
:102F7000060353632268936943F0010393610020C1
:102F8000C4F8A400012384F8A13038BD80F8A03033
:102F9000FEF750FC92E70120704700BF00F800F0F8
:102FA00070477047704770B5044603689D6B5E6B51
:102FB00015F0040F02D016F0040F12D115F0020F15
:102FC00002D016F0020F21D115F0010F02D016F039
:102FD000010F32D115F0080F02D016F0080F3DD1C5
:102FE00070BD5A6B22F004025A6303680422DA634C
:102FF000D0F8A43043F00103C0F8A43080F8A12039
:10300000002380F8A030FFF7CBFFD7E72268536B8F
:1030100023F00203536323680222DA63D4F8A43056
:103020001343C4F8A430042384F8A130002384F8A7
:10303000A0302046FFF7B4FFC6E72268536B23F0A9
:103040000103536322680123D36384F8A130002372
:1030500084F8A0302046FFF7A4FFBBE72268536B3B
:1030600023F00803536323680822DA63012384F8FA
:10307000A130002384F8A0302046FFF793FFAFE78C
:1030800090F8A030012B27D02DE9F04194460F464F
:1030900006464FF0010880F8A080022380F8A13096
:1030A000342404FB020438340D460FCD0FC40FCD79
:1030B0000FC40FCD0FC42B682360624639463046DB
:1030C000FFF72BFE3368C3F8248086F8A180002028
:1030D00086F8A000BDE8F08102207047002800F0CB
:1030E000E98170B582B00446036813F0010F3BD04C
:1030F000A74B9B6803F00C03042B2CD0A44B9B68BC
:1031000003F00C03082B21D06368B3F5803F4FD048
:10311000B3F5A02F52D09E4B1A6822F480321A6069
:103120001A6822F480221A606368002B50D0FEF7E0
:10313000C9FD0546964B1B6813F4003F14D1FEF7FA
:10314000C1FD401B6428F5D90320B8E1904B5B68B2
:1031500013F4800FD8D08E4B1B6813F4003F03D0BC
:103160006368002B00F0A881236813F0020F55D08C
:10317000874B9B6813F00C0F3ED0854B9B6803F088
:103180000C03082B33D0E368002B68D0814B01225D
:103190001A60FEF797FD05467D4B1B6813F0020F82
:1031A00054D1FEF78FFD401B0228F5D9032086E19C
:1031B000774A136843F480331360B5E7744B1A6899
:1031C00042F480221A601A6842F480321A60ABE737
:1031D000FEF778FD05466E4B1B6813F4003FC3D025
:1031E000FEF770FD401B6428F5D9032067E1684BAA
:1031F0005B6813F4800FC6D1654B1B6813F0020F98
:1032000004D0E368012B01D0012058E1604A136823
:1032100023F0F803216943EAC1031360236813F024
:10322000080F40D0636963B35B4B01221A60FEF75D
:1032300049FD0546564B5B6F13F0020F33D1FEF785
:1032400041FD401B0228F5D9032038E1504A13689C
:1032500023F0F803216943EAC1031360DEE74D4B15
:1032600000221A60FEF72EFD0546494B1B6813F03D
:10327000020FD3D0FEF726FD401B0228F5D903200C
:103280001DE1454B00221A60FEF71CFD0546404B30
:103290005B6F13F0020F06D0FEF714FD401B0228EF
:1032A000F5D903200BE1236813F0040F79D0384BD4
:1032B0001B6C13F0805F33D100230193344B1A6CE5
:1032C00042F080521A641B6C03F080530193019BFF
:1032D0000125324B1B6813F4807F23D0A368012B98
:1032E00034D0052B38D02A4B1A6F22F001021A670E
:1032F0001A6F22F004021A67A368002B36D0FEF77B
:10330000E1FC0646224B1B6F13F0020F48D1FEF77B
:10331000D9FC801B41F288339842F3D90320CEE0D8
:103320000025D6E71D4A136843F480731360FEF747
:10333000C9FC0646194B1B6813F4807FCED1FEF7FB
:10334000C1FC801B0228F5D90320B8E0104A136F96
:1033500043F001031367CFE70D4B1A6F42F00402ED
:103360001A671A6F42F001021A67C5E7FEF7AAFC56
:103370000646074B1B6F13F0020F11D0FEF7A2FC9D
:10338000801B41F288339842F3D9032097E000BFB5
:103390000038024000004742800E47420070004063
:1033A000EDB9A369002B00F08980484A926802F0C9
:1033B0000C02082A51D0022B17D0454B00221A606C
:1033C000FEF780FC0446414B1B6813F0007F42D09F
:1033D000FEF778FC001B0228F5D903206FE03B4A7A
:1033E000136C23F080531364DBE7394B00221A601F
:1033F000FEF768FC0546354B1B6813F0007F06D0CE
:10340000FEF760FC401B0228F5D9032057E0E36972
:10341000226A1343626A43EA8213A26A5208013A9B
:1034200043EA0243E26A43EA0263284A5360284BB4
:1034300001221A60FEF746FC0446244B1B6813F079
:10344000007F06D1FEF73EFC001B0228F5D90320C1
:1034500035E0002033E0002031E0012B31D01B4B60
:103460005B6803F48001E269914201D0012026E00B
:1034700003F03F02216A8A4201D001201FE0616A05
:1034800047F6C0721A40B2EB811F01D0012016E04E
:1034900003F44031A26A5208013AB1EB024F01D065
:1034A00001200CE003F07063E26AB3EB026F0AD014
:1034B000012004E001207047012000E0002002B05C
:1034C00070BD0120FBE70020F9E700BF0038024093
:1034D00060004742324B9B6803F00C03042B5CD026
:1034E000082B01D02F4870472DE9F04B2C4B5A6820
:1034F00002F03F025B6813F4800F2BD0284B5B680F
:10350000C3F388131E4600275C010025E41A65EB0F
:103510000705A90141EA9461A001001B61EB0501C7
:10352000CB0043EA5073C400A01943EB07014B02E0
:1035300043EAD0534402204619460023FDF776FAA9
:10354000174B5B68C3F3014301335B00B0FBF3F03F
:10355000BDE8F08B124B5B68C3F388131E4600274F
:103560005C010025E41A65EB0705A90141EA9461B5
:10357000A001001B61EB0501CB0043EA5073C400BE
:10358000A01943EB07018B0243EA905384022046C3
:1035900019460023FDF74AFAD2E70348704700BFF7
:1035A000003802400024F40000127A00002800F0E5
:1035B0009E8070B50446504B1B6803F00F038B428E
:1035C00009D2CBB24C4A1370136803F00F038B423D
:1035D00001D0012070BD236813F0020F17D013F043
:1035E000040F04D0454A936843F4E0539360236882
:1035F00013F0080F04D0414A936843F4604393608A
:103600003E4A936823F0F003A068034393600D469D
:10361000236813F0010F32D06368012B21D09A1E6A
:10362000012A25D9354A126812F0020F61D03349B8
:103630008A6822F0030213438B60FEF743FB0646C1
:103640002E4B9B6803F00C036268B3EB820F16D01D
:10365000FEF738FB801B41F288339842F0D90320F3
:10366000B8E7264A126812F4003FE0D10120B1E722
:10367000224A126812F0007FD9D10120AAE71E4B1E
:103680001B6803F00F03AB4209D9EAB21A4B1A7058
:103690001B6803F00F03AB4201D001209AE72368B7
:1036A00013F0040F06D0154A936823F4E053E16841
:1036B0000B439360236813F0080F07D00F4A9368F9
:1036C00023F46043216943EAC1039360FFF702FFDB
:1036D0000A4B9B68C3F30313094AD35CD840094BD8
:1036E0001860094B1868FEF713FA002072E70120F2
:1036F000704701206EE700BF003C024000380240E6
:1037000080DD00080000002008000020014B186840
:10371000704700BF0000002008B5FFF7F7FF044B1B
:103720009B68C3F38223034AD35CD84008BD00BF23
:103730000038024090DD000808B5FFF7E7FF044BB2
:103740009B68C3F34233034AD35CD84008BD00BF33
:103750000038024090DD00080F2303600B4B9A688D
:1037600002F0030242609A6802F0F00282609A68F6
:1037700002F4E052C2609B68DB0803F4E05303618B
:10378000034B1B6803F00F030B60704700380240C7
:10379000003C024030B583B00446036813F0430F89
:1037A00014D1236813F00C0F69D1236813F0200F94
:1037B00040F0BE80236813F0100F00F0208194F8D1
:1037C0002C20904B1A60002003B030BD8E4B00229D
:1037D0001A60FEF777FA05468C4B1B6813F0006FF2
:1037E00006D0FEF76FFA401B0228F5D90320EBE75D
:1037F000236813F0010F07D06268A3681B0743EA30
:103800008213824AC2F88430236813F0020F15D065
:103810007E4AD2F884106068E3681B0643EA80138E
:1038200001F0E0410B43C2F88430D2F88C3023F031
:103830001F03E16901390B43C2F88C30236813F090
:10384000400F0AD06268E3681B0643EA8213A2684D
:1038500043EA02736D4AC2F884306B4B01221A604E
:10386000FEF730FA0546694B1B6813F0006F98D1DC
:10387000FEF728FA401B0228F5D90320A4E7644B81
:1038800000221A60FEF71EFA0546604B1B6813F013
:10389000005F06D0FEF716FA401B0228F5D9032078
:1038A00092E7236813F0040F16D0584AD2F8881014
:1038B000206963691B0643EA801301F0E0410B4372
:1038C000C2F88830D2F88C3023F4F853216A0139D9
:1038D00043EA0123C2F88C30236813F0080F14D098
:1038E0004A4AD2F88830216903F0706343EA8113B1
:1038F000A16943EA0173C2F88830D2F88C3023F40E
:103900004033616A0B43C2F88C30414B01221A608C
:10391000FEF7D8F905463D4B1B6813F0005F7FF4B6
:1039200044AFFEF7CFF9401B0228F4D903204BE740
:1039300000230193354B1A6C42F080521A641B6CC1
:1039400003F080530193019B324A136843F4807360
:103950001360FEF7B7F905462E4B1B6813F4807F02
:1039600006D1FEF7AFF9401B0228F5D903202BE75B
:10397000264B1B6F13F4407312D0A26A02F44072FC
:103980009A420DD0214B1A6F22F440722249012035
:103990000860002008601A671B6F13F0010F12D136
:1039A000A36A03F44072B2F5407F1DD0174A9368B2
:1039B00023F4F813936015490B6FA26AC2F30B024C
:1039C00013430B67F6E6FEF77DF905460F4B1B6FB9
:1039D00013F0020FE4D1FEF775F9401B41F2883372
:1039E0009842F3D90320EFE608498A6822F4F812D6
:1039F00023F0704323F4407313438B60DBE7002014
:103A0000E2E600BFE011474268004742003802404A
:103A10007000474200700040400E4742D8B138B5B0
:103A200004460D4690F82C3083B1022384F82C30E4
:103A3000211D206800F0E8FC62682946206800F03B
:103A40001FFD012384F82C30002038BD80F82D3074
:103A5000FEF75AF8E9E70120704700285AD010B560
:103A60000446436A33B94368B3F5827F05D0002327
:103A7000C36102E00023036143610023A36294F861
:103A80005130002B40D0022384F851302268136853
:103A900023F040031360636803F48273A26802F4A6
:103AA00004421343E26802F400621343226902F005
:103AB00002021343626902F001021343A26902F495
:103AC00000721343E26902F038021343226A02F0E3
:103AD00080021343A26A02F40052216813430B6070
:103AE000638B03F00403626A02F01002216813433F
:103AF0004B602268D36923F40063D36100206065C2
:103B0000012384F8513010BD84F850302046FDF771
:103B100073FFB8E70120704710B4036A046A24F009
:103B200001040462846924F0F00444EA021223F0E0
:103B30000A030B43826103625DF8044B704710B4C3
:103B4000036A23F0100303628469036A24F4704457
:103B500044EA023223F0A00343EA011382610362C4
:103B60005DF8044B7047836823F07003194341F0FC
:103B7000070181607047000090F83D30DBB2012BF7
:103B800001D001207047022380F83D300268D368DD
:103B900043F00103D3600368184A934220D0B3F185
:103BA000804F1DD0A2F57C42934219D002F580626D
:103BB000934215D002F58062934211D002F578420B
:103BC00093420DD002F57052934209D0A2F594327F
:103BD000934205D01A6842F001021A600020704733
:103BE0009A6802F00702062A05D01A6842F001021C
:103BF0001A60002070470020704700BF000001409D
:103C0000704770477047704710B5044603681A69DB
:103C100012F0020F11D0DA6812F0020F0DD06FF01F
:103C200002021A610123037703689B6913F0030FF3
:103C300070D0FFF7E6FF0023237723681A6912F09C
:103C4000040F12D0DA6812F0040F0ED06FF00402E5
:103C50001A610223237723689B6913F4407F5FD0A6
:103C60002046FFF7CEFF0023237723681A6912F05E
:103C7000080F12D0DA6812F0080F0ED06FF00802A9
:103C80001A61042323772368DB6913F0030F4ED0F6
:103C90002046FFF7B6FF0023237723681A6912F046
:103CA000100F12D0DA6812F0100F0ED06FF0100261
:103CB0001A61082323772368DB6913F4407F3DD022
:103CC0002046FFF79EFF0023237723681A6912F02E
:103CD000010F03D0DA6812F0010F36D123681A6998
:103CE00012F0800F03D0DA6812F0800F34D123680D
:103CF0001A6912F0400F03D0DA6812F0400F32D187
:103D000023681A6912F0200F03D0DA6812F0200F2E
:103D100030D110BDFFF774FF2046FFF773FF8AE72D
:103D20002046FFF76DFF2046FFF76CFF9BE720461C
:103D3000FFF766FF2046FFF765FFACE72046FFF779
:103D40005FFF2046FFF75EFFBDE76FF001021A61DB
:103D50002046FDF715FAC1E76FF080021A61204690
:103D600000F06BF9C3E76FF040021A612046FFF7DD
:103D70004AFFC5E76FF020021A61204600F05CF9A7
:103D8000C7E700000368304A904212D0B0F1804F7C
:103D90000FD0A2F57C4290420BD002F58062904297
:103DA00007D002F58062904203D002F5784290423B
:103DB00003D123F070034A681343234A90422AD068
:103DC000B0F1804F27D0A2F57C42904223D002F57B
:103DD000806290421FD002F5806290421BD002F5B3
:103DE0007842904217D002F57052904213D002F5FB
:103DF000806290420FD002F5806290420BD0A2F513
:103E00009832904207D002F58062904203D002F5CA
:103E10008062904203D123F44073CA68134323F0B5
:103E200080034A69134303608B68C3620B68836233
:103E3000054B984203D003F58063984201D10B698A
:103E400003630123436170470000014038B310B59C
:103E5000044690F83D30EBB1022384F83D30211D3B
:103E60002068FFF78FFF012384F8463084F83E3046
:103E700084F83F3084F8403084F8413084F8423090
:103E800084F8433084F8443084F8453084F83D3079
:103E9000002010BD80F83C30FDF7E4FDDCE7012098
:103EA000704710B4846824F47F4442EA03230B4330
:103EB000234383605DF8044B704790F83C30012B3E
:103EC00073D010B50446012380F83C30022380F8FB
:103ED0003D300268936823F47F4323F077039360B7
:103EE0000B68402B56D011D9702B3BD01FD8502BCC
:103EF00045D0602B19D1CA6849680068FFF71FFEDA
:103F000060212068FFF72FFE002024E0102B04D052
:103F100009D9202B01D0302B07D119462068FFF793
:103F200022FE002017E0002BF7D0012013E0B3F5AC
:103F3000805F0FD0B3F5005FF7D1CB684A6889681E
:103F40000068FFF7AEFF2268936843F480439360F4
:103F5000002000E00020012384F83D30002384F895
:103F60003C3010BDCB684A6889680068FFF799FF4C
:103F70002268936843F0770393600020EBE7CA68F8
:103F800049680068FFF7C8FD50212068FFF7EBFD86
:103F90000020E0E7CA6849680068FFF7BDFD4021DE
:103FA0002068FFF7E0FD0020D5E702207047000001
:103FB00090F83C30012B3BD030B4012380F83C30EA
:103FC000022380F83D3003685C689D6824F070042B
:103FD0000A6822435A600368164A93421AD0B3F122
:103FE000804F17D0A2F57C42934213D002F5806235
:103FF00093420FD002F5806293420BD002F57842D3
:10400000934207D002F57052934203D0A2F5943246
:10401000934204D125F080054A6815439D60012331
:1040200080F83D30002380F83C30184630BC7047A3
:104030000220704700000140704770472DE9F04BA7
:1040400004460268136923F44053C1680B431361AB
:1040500083680269134342691343C2691A430168C2
:10406000CB6823F4164323F00C031343CB600268A0
:10407000536923F4407381690B43536103683A4ADF
:10408000934206D002F58062934202D0FFF744FBD0
:1040900001E0FFF751FBE369B3F5004F30D04FF07B
:1040A0000009061849EB090716EB000B47EB090C52
:1040B0004FEACC0343EA5B734FEACB0293469C463C
:1040C00063689A009B0F10EB0B0049EB0C01FCF7A7
:1040D000ADFC264DA5FB00325109642202FB110202
:1040E00013013233A5FB03235B0903F0F00202EB5B
:1040F000011203F00F03216813448B60BDE8F08BBD
:1041000083464FF0000C06184CEB0C0716EB00082A
:1041100047EB0C094FEAC90343EA58734FEAC80258
:104120009046994662680021921841EB01031BEB0F
:1041300008004CEB0901FCF779FC0C4DA5FB0032A3
:104140005109642202FB1102D3003233A5FB032381
:104150005B095A0002F4F87202EB011203F0070344
:10416000216813448B60C9E7001001401F85EB51A3
:104170002DE9F04104460F4616469846069D2368F1
:104180001B6837EA03030CBF01230023B3422BD182
:10419000B5F1FF3FF3D02DB1FDF794FDA0EB080082
:1041A000A842ECD9226802F10C0353E8003F23F443
:1041B000D0730C3242E800310029F3D1226802F1B9
:1041C000140353E8003F23F00103143242E80031A6
:1041D0000029F3D1202384F83D3084F83E300023B9
:1041E00084F83C30032000E00020BDE8F08158B3A3
:1041F00010B5044690F83D300BB3242384F83D30CD
:104200002268D36823F40053D3602046FFF716FFDB
:104210002268136923F4904313612268536923F0E1
:104220002A0353612268D36843F40053D36000200B
:104230002064202384F83D3084F83E3010BD80F89F
:104240003C30FDF727FCD8E7012070472DE9F0410D
:1042500082B01E4690F83D30DBB2202B54D104468C
:104260000D469046002954D0002A54D090F83C3096
:10427000012B52D0012380F83C300023036421231A
:1042800080F83D30FDF71EFD0746A4F82480A4F811
:104290002680A368B3F5805F05D04FF000080023A7
:1042A00084F83C3011E0236913B14FF00008F6E7C1
:1042B000A8460025F3E738F8023B2268C3F3080359
:1042C0005360E38C013B9BB2E384E38C9BB273B1FC
:1042D00000963B46002280212046FFF749FFF0B9B7
:1042E000002DE8D015F8012B23685A60E9E7009605
:1042F0003B46002240212046FFF73AFF034680B9A3
:10430000202284F83D2000E00223184602B0BDE8D8
:10431000F0810123F9E70123F7E70223F5E70323FF
:10432000F3E70323F1E72DE9F04182B01E4690F850
:104330003E30DBB2202B5BD104460D46904600296F
:104340005AD0002A5AD090F83C30012B58D0012383
:1043500080F83C3000230364222280F83E2003636F
:10436000FDF7B0FC0746A4F82C80A4F82E80A368C3
:10437000B3F5805F05D04FF00008002384F83C308F
:1043800016E0236913B14FF00008F6E7A8460025B0
:10439000F3E723685B68C3F3080328F8023B03E0F4
:1043A00023685B682B700135E38D013B9BB2E3858D
:1043B000E38D9BB2BBB100963B46002220212046F4
:1043C000FFF7D6FEF0B9002DE3D0A368B3F5805F08
:1043D000E6D013B92369002BE2D023685B6803F0B1
:1043E0007F032B70DFE7202384F83E30002000E0BD
:1043F000022002B0BDE8F0810120FAE70120F8E7D1
:104400000220F6E70320F4E730B40B68012B1AD042
:10441000026822F4FF4222F07F024B688C6823433B
:10442000CC6823430C6923434C6923438C692343A1
:10443000CC6923430C6A2343496A0B43134303604B
:10444000002030BC7047026822F4F842CB690C6A45
:104450001C434B6A1C431443426822F4FF4222F07F
:104460007F024B688D682B43CD682B430D692B432E
:104470004D692B4389690B43134304604360DFE7B5
:1044800030B4012A21D0826802F070420B68013BEF
:104490004C68013C43EA04138C68013C43EA042362
:1044A000CC68013C43EA04330C69013C43EA044311
:1044B0004C69013C43EA04538969013943EA0163C9
:1044C00013438360002030BC7047846824F4700478
:1044D00024F47044CA68551E4B695A1E120542EAFC
:1044E00005322243C46804F070440B68013B4D68F8
:1044F000013D43EA05138D68013D43EA05230D693B
:10450000013D43EA05438969013943EA01632343D5
:104510008260C360D6E7836843F0010383600020B4
:104520007047836823F00103836000207047000018
:1045300082B000230193890141F020010161019BB8
:1045400001330193054A934205D8036913F0200F04
:10455000F5D1002000E0032002B07047400D0300B9
:1045600082B00023019310230361019B0133019367
:10457000054A934205D8036913F0100FF5D10020C6
:1045800000E0032002B07047400D030070B483B018
:104590000646950802F00302002305E006F5805464
:1045A000246841F8044B0133AB42F7D39AB100F5CC
:1045B00080500368019308460024E3B2D900019BB0
:1045C000CB4000F8013B0134013A92B2002AF4D109
:1045D00003B070BC70470846FAE742698069104032
:1045E0007047406900F00100704710B400F5806426
:1045F000D0F8003423F00303C0F80034D0F80034BE
:1046000001F003021343C0F80034012905D0022948
:1046100007D000205DF8044B70474BF68033636091
:10462000F7E741F270736360F3E700F5806040697B
:1046300080B2704730B400EB411101F5A062D1F8AF
:104640000035C3F38143D1F80045856815F0200F8C
:1046500002D0E40F002C50D03BB3022B25D0D1F870
:10466000003543F08043C1F80035D0F8103413F41E
:104670007F0F4CD1D1F8003523F00043C1F800354D
:10468000D1F8003543F00043C1F80035D1F80035CA
:1046900023F40043C1F8003500230133B3F57A7FDA
:1046A0002BD811680029F8DB27E0D1F8003543F05A
:1046B0008043C1F80035836813F0200F1DD1C36A11
:1046C00013F47F0F1CD1D1F8003523F00043C1F85B
:1046D0000035D1F8003543F00043C1F80035D1F87A
:1046E000003523F40043C1F8003500230133B3F54E
:1046F0007A7F02D811680029F8DB002030BC7047AF
:10470000D1F8003543F00043C1F80035F5E7D1F8A2
:10471000003543F00043C1F80035EEE770B50546BB
:104720000446FFF7FEFE10212846FFF701FF28464A
:10473000FFF716FF00220AE004EB4211D1F8003522
:1047400023F0802343F08043C1F8003501320F2A63
:10475000F2D90020034600E001300F2813D804EB03
:10476000401606F5A061D6F8002522F4004242F07A
:104770004042C6F800250133B3F57A7FECD80A68C9
:10478000002AF8DBE8E74FF0FF33C5F814346B611B
:104790002846FFF7C0FE002070BD08B50378DBB2E5
:1047A0000B2B00D008BDD0F87C33002BFAD09B69CE
:1047B0009847F7E708B5D0F8C4330133C0F8C433DD
:1047C000FFF7EBFF08BD08B5012180F82313C0F8FF
:1047D000E0130022D0F8D80300F052F808BD0023FF
:1047E00080F82333704710B5012180F8201300248E
:1047F00080F8214380F82243C0F8E0132246D0F825
:10480000D80300F03DF8204610BD70B504460126DF
:1048100080F82163002580F8205380F8235300F0AE
:1048200010FE2179204600F019F86179204600F049
:1048300015F8C4F8E0632A463146D4F8D80300F0EE
:104840001FF8284670BD08B50121C0F8E01300220A
:10485000D0F8D80300F014F8002008BD0A2906D8C3
:10486000E03100EB81014B68C3F30E034B60002085
:104870007047EFF30580003018BF0120704700003B
:1048800030B585B00446019100230393154602B963
:104890000125FFF7EEFF98B1002303AA01A92046E6
:1048A00000F09CF9012818D1039BC3B10D4B4FF0C8
:1048B00080521A60BFF34F8FBFF36F8F002008E064
:1048C00000232A4601A9204600F0CAF8012802D197
:1048D000002005B030BDFF20FBE7FF20F9E70020F6
:1048E000F7E700BF04ED00E043684B609A688A6018
:1048F0009A685160996008610368013303607047EA
:1049000030B40D68B5F1FF3F02D000F1080202E0BB
:10491000026904E01A4653681C68AC42FAD953682D
:104920004B6099608A6051600861036801330360DD
:1049300030BC704703694268816891608268416851
:1049400051605A68824206D0002202611A68013A18
:104950001A601868704782685A60F5E710B5044617
:1049600000F090FCA26BE36B9A4204D0002400F0AC
:10497000ABFC204610BD0124F9E770B5044616468D
:10498000856B026C5AB903681BB100200135A56321
:1049900070BD806800F00AFC0023A360F6E76EB9E2
:1049A000406805F0A1FD226C636813446360A2684F
:1049B000934219D3236863600020E7E7C06805F0DD
:1049C00093FD226C5242E3681344E36021688B42FA
:1049D00002D2A3681A44E260022E01D00020D5E77B
:1049E00025B1013D0020D1E70020CFE70020CDE731
:1049F00038B5054600F046FC95F8454064B203E042
:104A000000F0BCFB013C64B2002C08DD6B6A33B1E2
:104A100005F1240000F026FB0028F3D0F0E7FF2387
:104A200085F8453000F050FC00F02CFC95F844402F
:104A300064B203E000F0A2FB013C64B2002C08DD8C
:104A40002B6933B105F1100000F00CFB0028F3D006
:104A5000F0E7FF2385F8443000F036FC38BD000055
:104A6000F0B585B0019260B1044699B9026C8AB183
:104A70004FF0500383F31188BFF36F8FBFF34F8F55
:104A8000FEE74FF0500383F31188BFF36F8FBFF33E
:104A90004F8FFEE7022B0BD1E26B012A08D04FF0BB
:104AA000500383F31188BFF36F8FBFF34F8FFEE77F
:104AB0001E460F4600F06AFB50B9019B53B14FF000
:104AC000500383F31188BFF36F8FBFF34F8FFEE75F
:104AD00000253AE0002538E0324639462046FFF707
:104AE0004CFF636A4BB9A8B13B4B4FF080521A6040
:104AF000BFF34F8FBFF36F8F0CE004F1240000F081
:104B0000B1FA38B1344B4FF080521A60BFF34F8F77
:104B1000BFF36F8F00F0D8FB012005B0F0BD00F0AF
:104B2000D3FB0020F9E702A800F0DEFA012519E026
:104B3000002384F8443021E0002384F8453023E04A
:104B40002046FFF755FF00F097F900F09BFBA26BA2
:104B5000E36B9A42C0D3022EBED0019B002BDED065
:104B6000002DE0D000F0B0FB00F0F6F800F08AFB7A
:104B700094F844305BB2B3F1FF3FD9D094F845309C
:104B80005BB2B3F1FF3FD7D000F09EFB01A902A8B2
:104B900000F0B4FAC8B92046FFF7E0FE0028CFD0F5
:104BA000019904F1100000F043FA2046FFF720FFBE
:104BB00000F062F90028C8D1074B4FF080521A600C
:104BC000BFF34F8FBFF36F8FBFE72046FFF710FF94
:104BD00000F052F90020A0E704ED00E02DE9F843D1
:104BE00060B1044699B9006C88B14FF0500383F36B
:104BF0001188BFF36F8FBFF34F8FFEE74FF0500365
:104C000083F31188BFF36F8FBFF34F8FFEE7022B43
:104C10000BD1E06B012808D04FF0500383F31188CB
:104C2000BFF36F8FBFF34F8FFEE71F469046894655
:104C300000F0AEFBEFF311864FF0500383F31188C1
:104C4000BFF36F8FBFF34F8FA26BE36B9A4203D317
:104C5000022F01D0002010E094F845506DB2A36BF4
:104C60003A4649462046FFF788FEB5F1FF3F08D097
:104C70006B1C5BB284F84530012086F31188BDE8D7
:104C8000F883636A5BB104F1240000F0EBF940B1F2
:104C9000B8F1000F07D00120C8F80000EDE70120AF
:104CA000EBE70120E9E70120E7E70000074B9B6AFB
:104CB0001B6833B1054B9A6AD268D2685268DA62CF
:104CC0007047024B4FF0FF32DA6270475C0D0020F4
:104CD00070B504460E461F4BD3F81451D3F80001AB
:104CE0000430FFF727FE60B91A4BD3F80021D16AD0
:104CF000012202FA01F1D3F80C2122EA0102C3F8E1
:104D00000C21B4F1FF3F12D02C44124BD3F80031E8
:104D10005C60A54214D80F4DA86AD5F80011043183
:104D2000FFF7EEFDEB6AA34212D9EC6210E0002E11
:104D3000EAD00848D0F800110431FFF7D5FD07E0AC
:104D4000044BD3F8F800D3F800110431FFF7D8FD75
:104D500070BD00BF5C0D0020034AD2F8183101334A
:104D6000C2F81831704700BF5C0D00202DE9F041FA
:104D7000404BD3F81831002B72D13E4BD3F814516D
:104D80000135C3F81451CDB99B6A1B6843B14FF08C
:104D9000500383F31188BFF36F8FBFF34F8FFEE78C
:104DA000344B9A6AD3F8F8109962C3F8F820D3F814
:104DB0001C210132C3F81C21FFF778FF2D4BDB6A61
:104DC000AB4243D900242B4AD2F80031DB6A03EB13
:104DD000830399000A44136B012B00D90124254B4E
:104DE000D3F82031002B42D0012440E00124214B94
:104DF0009B6A1B6863B31F4B9B6ADB68DE68736842
:104E00009D422AD306F104084046FFF793FDB36A9A
:104E10001BB106F11800FFF78DFDF36A01229A40DD
:104E2000144FD7F80C110A43C7F80C2107F13000D2
:104E300003EB83039A0041461044FFF755FDF26AE5
:104E4000D7F80031DB6A9A42D0D2D0E70024CEE70F
:104E5000084B4FF0FF32DA62B5E7064AD362B2E799
:104E6000044AD2F824310133C2F824310024204608
:104E7000BDE8F0815C0D0020394BD3F8183143B9FF
:104E80004FF0500383F31188BFF36F8FBFF34F8F41
:104E9000FEE770B500F0F6F9314BD3F81821013A6E
:104EA000C3F81821D3F81831002B54D12C4BD3F868
:104EB000FC3023B9002400F007FA204670BD00241E
:104EC000274B5B692BB3264D2B6ADC6804F1180075
:104ED000FFF730FD261D3046FFF72CFDE36A012267
:104EE0009A40D5F80C110A43C5F80C2105F13000A1
:104EF00003EB83039A0031461044FFF7F5FCE26AA6
:104F0000D5F80031DB6A9A42DAD30122C5F82021B4
:104F1000D6E70CB1FFF7CAFE114BD3F8244164B1B8
:104F2000FFF724FF18B10E4B0122C3F82021013CEA
:104F3000F6D10B4B0022C3F82421094BD3F82031C2
:104F40005BB1084B4FF080521A60BFF34F8FBFF335
:104F50006F8F0124AFE70024ADE70024ABE700BF6B
:104F60005C0D002004ED00E0304BD3F8183123B184
:104F70002E4B0122C3F82021704710B52B4B002285
:104F8000C3F82021D3F800311B6B1A68B2F1A53F9A
:104F900003D15A68B2F1A53F1ED0244BD3F80001CB
:104FA000D3F800113431FBF7E1FF204AD2F80C317D
:104FB000B3FA83F3DBB2C3F11F0303EB8300810079
:104FC0000A44126B8AB94FF0500383F31188BFF380
:104FD0006F8FBFF34F8FFEE79A68B2F1A53FDCD128
:104FE000DB68B3F1A53FD8D1DFE7104A9900CC18B0
:104FF000A0001044446B6468446330321944880054
:1050000008300244944209D0084903EB83039A0014
:105010000A44536BDB68C1F8003110BD6168034876
:10502000142202FB03025163EEE700BF5C0D002077
:1050300040B94FF0500383F31188BFF36F8FBFF374
:105040004F8FFEE710B50C46054BD3F80011183111
:10505000FFF756FC01212046FFF73AFE10BD00BFC6
:105060005C0D002038B5C368DC6844B94FF05003CC
:1050700083F31188BFF36F8FBFF34F8FFEE704F107
:1050800018052846FFF756FC154BD3F8183103BB1B
:10509000251D2846FFF74EFCE36A01219940104A7E
:1050A000D2F80C010143C2F80C11303203EB830338
:1050B000980029461044FFF717FCE26A084BD3F822
:1050C0000031DB6A9A4209D90120054BC3F820015F
:1050D00038BD29460348FFF707FCEEE70020F7E755
:1050E0005C0D0020700D0020034BD3F81C210260E2
:1050F000D3F81431436070475C0D0020F8B550B10F
:10510000054689B94FF0500383F31188BFF36F8FC1
:10511000BFF34F8FFEE74FF0500383F31188BFF3C7
:105120006F8FBFF34F8FFEE70C4600F0ABF8124BCA
:10513000D3F8141168680A1A2368B3F1FF3F17D037
:105140002F680D4ED6F81C61B74201D0884211D9A4
:10515000934203D800232360012405E09B1A2360B7
:105160002846FFF7C1FF002400F0AEF82046F8BD46
:105170000024F9E70124F7E75C0D0020024B01222F
:10518000C3F82021704700BF5C0D0020064BD3F808
:1051900004313BB1044BD3F818310BB100207047F8
:1051A00002207047012070475C0D002000284DD080
:1051B00038B50446284AD2F80021824208D04FF080
:1051C000500383F31188BFF36F8FBFF34F8FFEE758
:1051D000826C42B94FF0500383F31188BFF36F8F95
:1051E000BFF34F8FFEE7013A8264C06A616C884268
:1051F0002ED07ABB251D2846FFF79CFB78B9E26AC2
:105200001549142303FB02131B6B43B9012303FA53
:1052100002F2D1F80C3123EA0203C1F80C31626CBE
:10522000E262C2F10703A361012404FA02F10A4B0E
:10523000D3F80C010143C3F80C1130332946142074
:1052400000FB0230FFF750FB204638BD00207047BE
:105250000020FAE70020F8E75C0D002000000000C5
:10526000074B19680868B0E8F04F80F30988BFF36E
:105270006F8F4FF0000080F311887047AFF300800C
:105280005C0E00204FF0500383F31188BFF36F8F43
:10529000BFF34F8F0A4A136801331360012B00D00C
:1052A0007047084B1B6813F0FF0FF9D04FF0500305
:1052B00083F31188BFF36F8FBFF34F8FFEE700BFFB
:1052C0000C00002004ED00E0094B1B6843B94FF0CF
:1052D000500383F31188BFF36F8FBFF34F8FFEE747
:1052E000013B034A13600BB983F31188704700BF79
:1052F0000C00002000000000000000000000000082
:10530000EFF30980BFF36F8F154B1A681EF0100F73
:1053100008BF20ED108A20E9F04F10602DE9090048
:105320004FF0500080F31188BFF34F8FBFF36F8FA2
:10533000FFF71AFE4FF0000080F3118809BC1968CE
:105340000868B0E8F04F1EF0100F08BFB0EC108AEC
:1053500080F30988BFF36F8F704700BFAFF3008001
:105360005C0E002008B54FF0500383F31188BFF3A3
:105370006F8FBFF34F8FFFF7F9FC18B1034B4FF05E
:1053800080521A60002383F3118808BD04ED00E009
:10539000EFF305830F2B0FD9104A9B5CDBB2104A49
:1053A00012789A4208D94FF0500383F31188BFF363
:1053B0006F8FBFF34F8FFEE70A4B1B6803F4E06368
:1053C000074A5268934208D94FF0500383F311887B
:1053D000BFF36F8FBFF34F8FFEE77047F0E300E03E
:1053E000840E00200CED00E008B5D0F80003FFF7B4
:1053F000E1F908BD08B5D0F80003FFF7F4F908BDDE
:1054000008B5D0F80003FFF700FA08BD08B5D0F8DA
:105410000003FFF718FA08BD08B5D0F80003FFF73E
:10542000D2F908BD08B5D0F80003FFF7D8F908BDD8
:1054300018B1022803D002207047002070470120D5
:10544000704708B5D0F8D003FDF738FBFFF7F0FF41
:1054500008BD000008B529B1030AC2B2044805F02E
:105460005BFDFEE7020AC1B2024805F055FDF8E710
:10547000085201083C52010810B50A4B5C6B9A6B4C
:10548000206111612146586F00F0B4F9012801D163
:10549000002010BD034B586F00F0BAF80249FFF727
:1054A000D9FF00BF8C0E00206C52010830B58DB0C2
:1054B00005460C460021214800F0AEF810F0FF0F21
:1054C0002AD11F4B00930123ADF80430ADF806300C
:1054D000ADF8083047F2903203920495002205920D
:1054E00018490691ADF81C30ADF81E30ADF82030EB
:1054F0004FF4C95309930A940B926946124B586FA3
:1055000000F09AF858B1104B1946586F00F036F871
:1055100060B100200DB030BD0C49FFF79BFF0A4B76
:10552000586F00F075F80A49FFF794FF064B586F63
:1055300000F06EF80749FFF78DFF00BF000F002055
:1055400040040440400404008C0E002080520108F6
:1055500094520108A452010808B5FFF78DFF08BD59
:1055600008B5044805F04CFD00F048F90249FFF782
:105570009DFF08BDBC520108141F002030B59FB02C
:1055800005460C4600F000FB002C2FD000282FD041
:105590006422002105A804F0B2FF174B0193174BBA
:1055A0000293174B0393174B049300F0C1F9059036
:1055B00000F000FA0690144B079307238DF8203073
:1055C00000F03AFA0A9000F08BFA0B900F4B0C9314
:1055D00001A9284600F09AFB30B1742201A92046A7
:1055E00004F082FF012004E0002002E0002000E03F
:1055F00000201FB030BD00BF545301085C530108A8
:10560000805301089C5301087C520108FAD6060019
:1056100008B500F001FB08BD00B583B0002301937D
:10562000042300930123034A00F012FE03B05DF847
:1056300004FB00BF1000002070B582B005460E4686
:1056400000F0DCFE002800F0D18002A8002340F822
:10565000043D3246012100F003F9002800F0C28029
:10566000634B9A6C42F080429A64019A1A655A65BB
:10567000996D41F08041996502F516711966596678
:10568000996E41F08041996602F51C71196759675E
:10569000996F41F08041996702F51F513031C3F88D
:1056A0008010C3F88410D3F8881041F08041C3F80B
:1056B000881002F520513031C3F89010C3F89410CF
:1056C000D3F8981041F08041C3F8981002F5CD410D
:1056D0003031C3F8A010C3F8A410D3F8A81041F0DB
:1056E0008041C3F8A81002F5CD415831C3F8B0107D
:1056F000C3F8B410D3F8B81041F08041C3F8B81023
:1057000002F5DE414831C3F8C010C3F8C410D3F825
:10571000C81041F08041C3F8C81002F5E0412031C3
:10572000C3F8D010C3F8D410D3F8D81041F080419A
:10573000C3F8D81002F5E742C3F8E020C3F8E4202C
:10574000012402A8002340F8043D3246012100F064
:10575000BBF8002848D0264B0021C3F8F010C3F84E
:10576000F410019A02F5C070C3F80001C3F80401F7
:10577000C3F81001C3F81401C3F82021C3F8242191
:1057800002F5C860C3F83001C3F83401C3F8402102
:10579000C3F8442102F12800C3F85001C3F85401B2
:1057A00002F58070C3F86001C3F86401C3F870218A
:1057B000C3F87421C3F88011C3F8841102F59F5116
:1057C000C3F89011C3F8941102F5A152C3F8A021B7
:1057D000C3F8A42101200440284600F021FF204006
:1057E00002B070BD0024ACE70020F4E70020F7E72A
:1057F0001000002008B500F0A7FF08BD0048704762
:10580000E0DD0008DFF834D00D480E490E4A0023D1
:1058100002E0D458C4500433C4188C42F9D30B4A64
:105820000B4C002301E013600432A242FBD3FCF7CF
:1058300019FA04F02DFEFBF757FE70470000032015
:1058400000000020300D0020B0560108300D00206F
:10585000CC3E0020FEE7000001207047704700BFEB
:1058600032B1126922B110B121B9084670477047B0
:105870001046704770B4134B15689D4207D0026004
:10588000A1F10100B0FA80F0400970BC7047546883
:10589000AC4202F1040211D0031F1646002003E0BF
:1058A00056F8044FAC4209D00130814243F8044F0E
:1058B000F6D152F82120034B9A4201D00020E4E7B0
:1058C0000120E2E7DECAFAA132B1926A22B110B138
:1058D00021B90846704770471046704770B4134BA3
:1058E00015689D4207D00260A1F10100B0FA80F076
:1058F000400970BC70475468AC4202F1040211D0F8
:10590000031F1646002003E056F8044FAC4209D0AE
:105910000130814243F8044FF6D152F82120034B65
:105920009A4201D00020E4E70120E2E7DECAFAA1B2
:1059300008B5174A136823F001031360FFF78CFFC3
:10594000144B1B6803F4E063B3F5806F0DD0124B6A
:1059500001221A601A68002AFCD1104B104A1A6002
:105960001A68104B9A420ED0FEE70F4B01221A60C4
:105970001A68002AFCD10D4B094A1A601A68094BB3
:105980009A4200D0FEE7FFF769FF094808BD00BF53
:10599000002000E0002004E0084C0258004C0258AF
:1059A000C2A507F4CDB5E8B508300240003002408A
:1059B0007C52010800B5184A136823F001031360F4
:1059C00083B0FFF749FF154B1B6803F4E063B3F5A1
:1059D000806F0DD0124B01221A601A68002AFCD188
:1059E000104B114A1A601A68104B9A420ED0FEE70B
:1059F0000F4B01221A601A68002AFCD10D4B0A4A8B
:105A00001A601A68094B9A4200D0FEE7FFF726FF9A
:105A1000072003B05DF804FB002000E0002004E054
:105A2000084C0258004C0258C2A507F4CDB5E8B5A1
:105A3000083002400030024000B5204A136823F0CD
:105A40000103136083B0FFF707FF1D4B1B6803F4CE
:105A5000E063B3F5806F0DD01A4B01221A601A680B
:105A6000002AFCD1184B194A1A601A68184B9A423E
:105A70000ED0FEE7174B01221A601A68002AFCD1EB
:105A8000154B124A1A601A68114B9A4200D0FEE771
:105A9000FFF7E4FE114B1B680020DAB262F3070047
:105AA000C3F3072262F30F20C3F3074262F31740E8
:105AB0001B0E63F31F6003B05DF804FB002000E0E1
:105AC000002004E0084C0258004C0258C2A507F41C
:105AD000CDB5E8B50830024000300240B4530108AB
